:020000040000FA
:100000000C9463000C948B000C948B000C948B006C
:100010000C948B000C948B000C948B000C94C107F7
:100020000C948B000C948B000C948B000C948B0024
:100030000C948B000C948B000C948B000C948B0014
:100040000C941D080C948B000C948B000C948B006A
:100050000C948B000C948B000C948B000C948B00F4
:100060000C948B000C948B000000000024002700EF
:100070002A000000000023002600290000000008DC
:10008000000201000003040700000000000000005F
:10009000010204081020408001020408102001021F
:1000A0000408102000000000250028002B00040494
:1000B0000404040404040202020202020303030310
:1000C00003030200880C11241FBECFEFD8E0DEBF6F
:1000D000CDBF11E0A0E0B1E0E4EAFEE102C005908E
:1000E0000D92AA3EB107D9F722E0AAEEB1E001C015
:1000F0001D92A034B207E1F710E0C3E6D0E004C0DF
:100100002197FE010E944A0FC236D107C9F70E940B
:1001100067080C94500F0C940000AF92BF92CF92DE
:10012000DF92EF92FF920F931F93CF93DF936C01B7
:100130007B018B01040F151FEB015E01AE18BF0898
:10014000C017D10759F06991D601ED91FC9101904A
:10015000F081E02DC6010995892B79F7C501DF9162
:10016000CF911F910F91FF90EF90DF90CF90BF90B4
:10017000AF900895833081F028F4813099F0823077
:10018000A9F008958730A9F08830C9F08430B1F41F
:10019000809180008F7D03C0809180008F77809355
:1001A0008000089584B58F7784BD089584B58F7DD0
:1001B000FBCF8091B0008F778093B000089580913D
:1001C000B0008F7DF9CFCF93DF93ECE8F0E084911E
:1001D000E0EAF0E0D491EEEBF0E0C491CC23A1F0A2
:1001E00081110E94BA00EC2FF0E0EE0FFF1FEE58D5
:1001F000FF4FA591B491EC91ED2381E090E009F4DB
:1002000080E0DF91CF91089580E090E0FACF1F93D6
:10021000CF93DF93282F30E0F901E458FF4F84910A
:10022000F901E057FF4FD491F901E255FF4FC49116
:10023000CC23A9F0162F81110E94BA00EC2FF0E018
:10024000EE0FFF1FEC55FF4FA591B4918FB7F894B7
:10025000EC91111108C0D095DE23DC938FBFDF91A4
:10026000CF911F910895DE2BF8CF90910001891353
:100270000BC0E2ECF0E0E4919FEF90930001E130DD
:1002800049F028F0E23061F060E00C940701109230
:100290006E00FACF90916F009D7F90936F00F4CF26
:1002A000909170009D7F9093700091E09093B000CA
:1002B0009091B100987F94609093B1001092B30038
:1002C000E3CFCF93DF9390E0FC01E057FF4F249101
:1002D00082559F4FFC0184918823D1F090E0880FD4
:1002E000991FFC01E859FF4FA591B491FC01EC5511
:1002F000FF4FC591D49161110EC09FB7F8948C91B6
:10030000E22FE0958E238C932881E223E8839FBF20
:10031000DF91CF9108958FB7F894EC91E22BEC9395
:100320008FBFF6CFCF9380910001883021F08F3FAF
:1003300059F1CF910895E2ECF0E0C491C7FDF9CFF7
:1003400061E088E00E946101CC2309F48BC0C230D7
:1003500009F09FC08091B100887F83608093B100D5
:1003600089EF8093B3008FEF9FEFDC018093190238
:1003700090931A02A0931B02B0931C02809170000C
:10038000826080937000D5CF88E080930001E2EC1A
:10039000F0E0C491CF3F69F2C13021F150F0C2309A
:1003A00009F43EC0C7FDC5CF61E088E00E9461014D
:1003B000CECF14BC15BC84B5826084BD85B5816088
:1003C00085BDE6EBF0E0E491F0E0EE0FFF1FEC55A9
:1003D000FF4F85919491E8E9F0E0E491E0931802F1
:1003E000C0E0AECF10928000109281008091810019
:1003F000886080938100809181008160809381007A
:10040000E6EBF0E0E491F0E0EE0FFF1FEC55FF4F5C
:1004100085919491E8E9F0E0E491E093170290CFA0
:100420001092B0001092B1008091B0008260809371
:10043000B0008091B10081608093B100E6EBF0E004
:10044000E491F0E0EE0FFF1FEC55FF4F8591949182
:100450009093160280931502E8E9F0E0E491E093AE
:1004600014026ECF85B5887F836085BD8CE787BD1C
:100470008FEF9FEFDC018093210290932202A093E3
:100480002302B093240280916E00826080936E00FC
:1004900050CFC130E9F480918100887F81608093E2
:1004A00081008FE39FE190938900809388008FEF14
:1004B0009FEFDC0180931D0290931E02A0931F0208
:1004C000B093200280916F00826080936F0031CFE3
:1004D000C23021F0C1112DCF8FE3C9CF8FE341CFBF
:1004E0008E50806480937C0080917A008064809339
:1004F0007A0080917A0086FDFCCF809178009091FF
:10050000790008953FB7F8948091F7019091F80130
:10051000A091F901B091FA0126B5A89B05C02F3F23
:1005200019F00196A11DB11D3FBFBA2FA92F982F19
:100530008827BC01CD01620F711D811D911D42E014
:10054000660F771F881F991F4A95D1F708958F92DC
:100550009F92AF92BF92CF92DF92EF92FF924B01A8
:100560005C010E9482026B017C010E9482026C1974
:100570007D098E099F09683E734081059105A8F3A6
:1005800021E0821A9108A108B10888EEC80E83E024
:10059000D81EE11CF11C81149104A104B10429F7B7
:1005A000FF90EF90DF90CF90BF90AF909F908F9093
:1005B0000895CF93DF93EC012A899CB59C7F822F0D
:1005C0008370982B9CBD8DB522FB222720F98E7F4E
:1005D000822B8DBD8C89811119C08CB580628CBD38
:1005E0008CB5837F9B89892B8CBD60E089890E94B3
:1005F00007018F858EBD00000DB407FEFDCF8EB5BF
:1006000061E08989DF91CF910C9407018CB58F7DD2
:10061000E6CF089590E080E00895FC01019000206D
:10062000E9F73197AF01481B590BBC0185E292E015
:100630000C948D008F929F92AF92BF920F931F9355
:10064000CF93DF93CDB7DEB7A1970FB6F894DEBF97
:100650000FBECDBF19A2423008F44AE08E010F5DF3
:100660001F4F842E912CB12CA12CA50194010E9426
:10067000C40CE62FB901CA01EA30F4F4E05DD801F8
:10068000EE938D01232B242B252B79F790E080E02E
:10069000109719F0CD010E940D03A1960FB6F894A2
:1006A000DEBF0FBECDBFDF91CF911F910F91BF90E5
:1006B000AF909F908F900895E95CE1CF0C940D036B
:1006C000CF92DF92EF92FF92CF93DF93EC018E8176
:1006D0009889911116C060E00E94070161E08E8147
:1006E0000E94070160E08E810E9407018BE891E083
:1006F0000197F1F7DF91CF91FF90EF90DF90CF90CE
:100700000895C12CD12C7601C394A701960104C091
:10071000220F331F441F551F8A95D2F7922F9095B1
:100720008F8589238F87CE010E94D9028E81A701F0
:10073000960104C0220F331F441F551F8A95D2F71C
:10074000C9012F85822B8F87CE010E94D9028E810D
:1007500004C0CC0CDD1CEE1CFF1C8A95D2F7C094A3
:100760008F85C822CF86CE010E94D9028BE990E006
:10077000BFCFCF92DF92EF92FF920F931F93CF9351
:10078000DF93EC018889062F10E081112BC06E01E8
:1007900087E0C80ED11CF12CE12C61E0F6018191BB
:1007A0006F010E946101B8010E2C02C0759567951A
:1007B0000A94E2F76170F601319780810E94070187
:1007C000FFEFEF1AFF0A84E0E816F10431F7CE01DB
:1007D000DF91CF911F910F91FF90EF90DF90CF901D
:1007E0000C94600324E030E0C12CD12C7601C3943A
:1007F000D701C601022E04C0880F991FAA1FBB1F74
:100800000A94D2F74F85B90164507109F80102C00A
:10081000F595E7956A95E2F7E0FF0BC0842B8F878B
:100820002F5F3F4F2830310519F7CE010E94D902C2
:10083000CECF80958423F3CFCF92DF92EF92FF92B9
:100840000F931F93CF93DF93EC01F62E3C818889A1
:10085000062F10E0811138C0642F832F0E940701FA
:100860008D818F3F19F060E00E9407018D8984FF20
:100870003EC06E0187E0C80ED11CF12CE12C61E076
:10088000F60181916F010E946101B8010E2C02C036
:10089000759567950A94E2F76170F601319780814A
:1008A0000E940701FFEFEF1AFF0A88E0E816F10443
:1008B00031F7CE01DF91CF911F910F91FF90EF9013
:1008C000DF90CF900C9460032F8581E090E0A0E052
:1008D000B0E004C0880F991FAA1FBB1F3A95D2F73A
:1008E0004423D1F0822B8F87CE010E94D902B80118
:1008F00084E0759567958A95E1F7CE010E94B9036A
:100900006F2DCE01DF91CF911F910F91FF90EF904E
:10091000DF90CF900C94B90380958223E4CF40E020
:10092000682F85E292E00C941C0481E00E948F0401
:100930008BE39FE10197F1F70895CF93DF93823026
:1009400029F490913A02986090933A0280933E0283
:1009500010923F028BE39DE00197F1F760E08091F8
:1009600029020E94070160E080912B020E9407018A
:1009700080912A028F3F19F060E00E940701809168
:100980003A0284FD34C063E085E292E00E94B9033C
:10099000CBE4D6E4CE010197F1F763E085E292E083
:1009A0000E94B9032197F1F763E085E292E00E948B
:1009B000B90383E592E00197F1F762E085E292E006
:1009C0000E94B90380913A0280620E948F0484E001
:1009D00080933B028CE00E948F040E94950482E089
:1009E00080933C0286E0DF91CF910C948F0480626B
:1009F0000E948F048BE496E40197F1F780913A020C
:100A000080620E948F0483E592E00197F1F7809164
:100A10003A0280620E948F04D5CFCF93DF93CDB787
:100A2000DEB728970FB6F894DEBF0FBECDBF98E0B3
:100A3000E1E0F1E0DE01119601900D929A95E1F767
:100A400090913E02961708F46FEF70E0660F771FE3
:100A500021E030E02C0F3D1F620F731FFB019081DE
:100A6000890F806828960FB6F894DEBF0FBECDBF01
:100A7000DF91CF910C948F0441E00E941C0481E02F
:100A800090E008954F925F926F927F928F929F9223
:100A9000AF92BF92CF92DF92EF92FF920F931F938C
:100AA000CF936B017C01742EAC019B010E941D0F42
:100AB000882399F085E191E0CF911F910F91FF90EC
:100AC000EF90DF90CF90BF90AF909F908F907F90EE
:100AD0006F905F904F900C940D0346015701E8947E
:100AE000B7F82FEF3FEF4FE75FE7C501B4010E9472
:100AF0001D0F81110DC02FEF3FEF4FE75FE7C501DD
:100B0000B4010E94530D18161CF489E191E0D4CF72
:100B10002FEF3FEF4FE75FE4C701B6010E94AB0E36
:100B200018161CF48DE191E0C7CF2FEF3FEF4FE790
:100B30005FECC701B6010E94530D87FDF3CF20E0A3
:100B400030E0A901C701B6010E94530D10E000E09A
:100B500087FF0CC041E06DE285E292E00E941C0438
:100B6000F7FAF094F7F8F09401E010E0C0E060E0EC
:100B700070E080E09FE37C1641F020E030E040E24E
:100B800051E40E94580DCF5FF6CFA70196010E9455
:100B9000E70C4B015C010E94CA0D2B013C014AE0AD
:100BA0000E941A03080F191FCC23C9F1C301B20117
:100BB0000E94F90D9B01AC01C501B4010E94E60C35
:100BC0004B015C0141E06EE285E292E00E941C0470
:100BD0000F5F1F4FC15018F120E030E040E251E4B8
:100BE000C501B4010E94B00E2B013C010E94CA0D48
:100BF0004B01B12CA12C4AE0C501B4010E941A039B
:100C0000080F191FC501B4010E94F90D9B01AC0129
:100C1000C301B2010E94E60C4B015C01DBCFC801AD
:100C2000CF911F910F91FF90EF90DF90CF90BF90E9
:100C3000AF909F908F907F906F905F904F900895AE
:100C40008F929F92AF92BF92CF92DF92EF92FF92DC
:100C50008EE00E947002BC01990F880B990B0E94D4
:100C6000FB0D6B017C01C092EE01D092EF01E0928E
:100C7000F001F092F10120E030E048EC52E40E94F3
:100C8000B00E20E030EC4FE754E40E94580D4B01C9
:100C90005C018092EA019092EB01A092EC01B0928B
:100CA000ED018FE00E9470028FE00E947002880FB9
:100CB000991F880F991F6FEF73E00E94220F072E74
:100CC000000C880B990B0E94FB0D6093FB01709345
:100CD000FC018093FD019093FE0120E030E0A9012A
:100CE000C701B6010E94AB0E87FD23C023E333E7A3
:100CF00049E154E4C701B6010E94530D87FF19C0B2
:100D000060E080E00E940D0542E0C501B4010E9450
:100D1000420560E084E00E940D0581E291E00E94BE
:100D20005E0361E080E00E940D0583E291E00E9495
:100D30005E03C090EE01D090EF01E090F001F090E2
:100D4000F10123E333E749E154E4C701B6010E940E
:100D5000AB0E87FD55C026E636E043E354E4C701F9
:100D6000B6010E94530D87FF4BC060E080E00E94F7
:100D70000D056091EA017091EB018091EC01909179
:100D8000ED0142E00E94420560E084E00E940D0512
:100D900081E291E00E945E0361E080E00E940D0527
:100DA0008CE291E00E945E0320E030E040E05FE3EF
:100DB0006091FB017091FC018091FD019091FE0119
:100DC0000E94530D60E018160CF48FC08DE00E9455
:100DD000070160E08CE00E94070160E08BE00E9468
:100DE000070160E08AE00E9407010E94920168EE1C
:100DF00073E080E090E00E94A70288E00E94350145
:100E0000C090EE01D090EF01E090F001F090F10180
:100E100026E636E043E354E4C701B6010E94AB0E78
:100E200087FD55C020E030E040E854E4C701B6013A
:100E30000E94530D87FF4BC060E080E00E940D05CB
:100E40006091EA017091EB018091EC019091ED01CC
:100E500042E00E94420560E084E00E940D0581E2CC
:100E600091E00E945E0361E080E00E940D0587E34F
:100E700091E00E945E0320E030E040E05FE360919B
:100E8000FB017091FC018091FD019091FE010E9497
:100E9000530D60E018160CF44EC08DE00E9407015F
:100EA00060E08CE00E94070160E08BE00E94070197
:100EB00060E08AE00E9407010E94920168EE73E000
:100EC00080E090E00E94A70288E00E94350160ED7A
:100ED00077E080E090E0FF90EF90DF90CF90BF90C0
:100EE000AF909F908F900C94A7028DE00E94070115
:100EF00060E08CE00E94070161E08BE00E94070146
:100F000060E08AE00E94070168EB7BE080E090E00F
:100F10000E94A70260E08DE00E94070160E08CE083
:100F20000E94070160E08BE00E94070160E08AE018
:100F30000E94070165CF8DE00E94070160E08CE010
:100F40000E94070161E08BE00E94070160E08AE0F7
:100F50000E94070168E873E180E090E00E94A70228
:100F600060E08DE00E94070160E08CE00E940701D4
:100F700060E08BE00E94070160E08AE00E940701C8
:100F8000A6CF1F920F920FB60F9211242F933F936B
:100F90004F935F936F937F938F939F93AF93BF9381
:100FA000EF93FF938091190290911A02A0911B0276
:100FB000B0911C02892B8A2B8B2BD1F190911402BA
:100FC000E0911502F091160280818927808380913B
:100FD000190290911A02A0911B02B0911C021816DE
:100FE00019061A061B069CF48091190290911A02A8
:100FF000A0911B02B0911C020197A109B109809335
:10100000190290931A02A0931B02B0931C02FF9145
:10101000EF91BF91AF919F918F917F916F915F9170
:101020004F913F912F910F900FBE0F901F901895E9
:10103000809100010E943501EACF1F920F920FB6F6
:101040000F9211242F933F938F939F93AF93BF934E
:101050008091F3019091F401A091F501B091F60116
:101060003091F20123E0230F2D3758F50196A11D91
:10107000B11D2093F2018093F3019093F401A093AA
:10108000F501B093F6018091F7019091F801A091DC
:10109000F901B091FA010196A11DB11D8093F701EC
:1010A0009093F801A093F901B093FA01BF91AF9129
:1010B0009F918F913F912F910F900FBE0F901F9096
:1010C000189526E8230F0296A11DB11DD2CF789462
:1010D00084B5826084BD84B5816084BD85B582603D
:1010E00085BD85B5816085BD80916E0081608093EE
:1010F0006E00109281008091810082608093810057
:101100008091810081608093810080918000816066
:10111000809380008091B10084608093B1008091C1
:10112000B00081608093B00080917A0084608093E9
:101130007A0080917A00826080937A0080917A00B0
:10114000816080937A0080917A00806880937A0031
:101150001092C10082E00E949D0460E08EE00E9437
:10116000610160E08FE00E94610160E081E10E9426
:10117000610161E088E00E94610161E08DE00E9410
:10118000610161E08CE00E94610161E08BE00E94FE
:10119000610161E08AE00E9461012BE9622E712CFD
:1011A000CC24C394D12C40E0E42E40E0F42E1092E5
:1011B0000F0210921002109211021092120210925D
:1011C000130261E080E10E94610160E080E10E9421
:1011D000070164E170E080E090E00E94A70261E016
:1011E00080E10E940701C3010197F1F760E080E10F
:1011F0000E946101C1E1D7E20E94E300892B09F05E
:1012000021C32197C9F780910B0290910C02A09104
:101210000D02B0910E028093030290930402A093FA
:101220000502B09306020E94950460E080E00E94EF
:101230000D0580E491E00E945E0360E08CE00E9476
:101240000D05609103027091040280910502909156
:10125000060242E00E94420560E08EE00E940D0519
:101260008EE491E00E945E0361E080E00E940D0543
:1012700081E10E947002BC01990F880B990B0E94BA
:10128000FB0D6093FF017093000280930102909325
:10129000020220E030E041E654E40E94AB0E181652
:1012A0000CF07EC08090030290900402A090050292
:1012B000B090060220E030E040EA50E4C501B401FD
:1012C0000E94AB0E87FD18C020E030E040EA51E4F8
:1012D000C501B4010E94530D87FF0EC082E591E065
:1012E0000E945E0368EB7BE080E090E00E94A70232
:1012F0000E9495040E9420068090030290900402B0
:10130000A0900502B090060220E030E040EA51E4EF
:10131000C501B4010E94AB0E87FD18C020E030E08B
:101320004CE052E4C501B4010E94530D87FF0EC08A
:1013300080E691E00E945E0368EB7BE080E090E055
:101340000E94A7020E9495040E942006809003023A
:1013500090900402A0900502B090060220E030E0D8
:101360004CE052E4C501B4010E94AB0E87FD18C0E9
:1013700020E030E048E452E4C501B4010E94530D7E
:1013800087FF0EC080E791E00E945E0368EB7BE080
:1013900080E090E00E94A7020E9495040E9420062F
:1013A0008090FF0190900002A0900102B090020294
:1013B00020E030E844E554E4C501B4010E94AB0EDE
:1013C00087FD88C020E030E041E654E4C501B40167
:1013D0000E94530D87FF7EC080900302909004020C
:1013E000A0900502B090060220E030E040EA50E410
:1013F000C501B4010E94AB0E87FD18C020E030E0AB
:1014000040EA51E4C501B4010E94530D87FF0EC0AC
:101410008FE791E00E945E0368EB7BE080E090E064
:101420000E94A7020E9495040E9420068090030259
:1014300090900402A0900502B090060220E030E0F7
:1014400040EA51E4C501B4010E94AB0E87FD18C00B
:1014500020E030E04CE052E4C501B4010E94530D9D
:1014600087FF0EC08FE891E00E945E0368EB7BE08F
:1014700080E090E00E94A7020E9495040E9420064E
:101480008090030290900402A0900502B0900602A2
:1014900020E030E04CE052E4C501B4010E94AB0E04
:1014A00087FD18C020E030E048E452E4C501B401F3
:1014B0000E94530D87FF0EC080EA91E00E945E03F8
:1014C00068EB7BE080E090E00E94A7020E94950418
:1014D0000E94200620E030E844E554E46091FF01DA
:1014E0007091000280910102909102020E94530DBE
:1014F00087FF7EC08090030290900402A0900502B6
:10150000B090060220E030E040EA50E4C501B401AA
:101510000E94AB0E87FD18C020E030E040EA51E4A5
:10152000C501B4010E94530D87FF0EC08CEA91E003
:101530000E945E0368EB7BE080E090E00E94A702DF
:101540000E9495040E94200680900302909004025D
:10155000A0900502B090060220E030E040EA51E49D
:10156000C501B4010E94AB0E87FD18C020E030E039
:101570004CE052E4C501B4010E94530D87FF0EC038
:101580008FEB91E00E945E0368EB7BE080E090E0EF
:101590000E94A7020E9495040E94200680900302E8
:1015A00090900402A0900502B090060220E030E086
:1015B0004CE052E4C501B4010E94AB0E87FD18C097
:1015C00020E030E048E452E4C501B4010E94530D2C
:1015D00087FF0EC08BEB91E00E945E0368EB7BE01F
:1015E00080E090E00E94A7020E9495040E942006DD
:1015F0000E9495048090FB019090FC01A090FD0159
:10160000B090FE0120E030E040E05FE3C501B401AE
:101610000E94530D18161CF160E080E00E940D0539
:1016200042E0C501B4010E94420560E085E00E94ED
:101630000D0585EC91E00E945E0361E080E00E9470
:101640000D058FEC91E00E945E0360E08AE00E944D
:10165000070160ED77E080E090E00E94A7028090B3
:10166000FB019090FC01A090FD01B090FE0120E0F4
:1016700030E040E05FE3C501B4010E94AB0E1816F4
:101680004CF520E030E040E85FE3C501B4010E9482
:10169000530D1816FCF060E080E00E940D0542E05A
:1016A000C501B4010E94420560E085E00E940D057D
:1016B00085EC91E00E945E0361E080E00E940D05F0
:1016C00088EC91E00E945E0360ED77E080E090E0BE
:1016D0000E94A7028090FB019090FC01A090FD0168
:1016E000B090FE0120E030E040E85FE3C501B401C6
:1016F0000E94AB0E18164CF520E030E040E050E4BC
:10170000C501B4010E94530D1816FCF060E080E0A2
:101710000E940D0542E0C501B4010E94420560E04F
:1017200085E00E940D0585EC91E00E945E0361E07A
:1017300080E00E940D0585ED91E00E945E0360ED62
:1017400077E080E090E00E94A7028090FB019090FB
:10175000FC01A090FD01B090FE0120E030E040E0EF
:1017600050E4C501B4010E94AB0E18164CF520E000
:1017700030E040E450E4C501B4010E94530D181656
:10178000FCF060E080E00E940D0542E0C501B4017C
:101790000E94420560E085E00E940D0585EC91E025
:1017A0000E945E0361E080E00E940D058AED91E0F9
:1017B0000E945E0360ED77E080E090E00E94A70267
:1017C0008090FB019090FC01A090FD01B090FE0183
:1017D00020E030E040E450E4C501B4010E94AB0ECB
:1017E00018164CF520E030E040E850E4C501B401A3
:1017F0000E94530D1816FCF060E080E00E940D0579
:1018000042E0C501B4010E94420560E085E00E940B
:101810000D0585EC91E00E945E0361E080E00E948E
:101820000D0585EE91E00E945E0360ED77E080E0BB
:1018300090E00E94A702E114F10409F4B8CC0E94E0
:101840000000B5CCC1E1D7E20E94E300019719F492
:101850002197D1F7D8CCC8E2D0E097E0592E412C9F
:1018600001E117E20E94E300892B21F401501109E4
:10187000C9F7C9CC0E9482024B015C0101E117E269
:101880000E94E300019721F401501109C9F7BBCC74
:101890000E948202681979098A099B0969327105D7
:1018A0008105910568F0E42DF0E0E95FFD4F80854A
:1018B0009601052C01C0220F0A94EAF7822B80873B
:1018C000511024C0439487E0582E219749F6609127
:1018D0000F0270E090E080E00E94F90D6093070233
:1018E000709308028093090290930A02609111029A
:1018F00070E090E080E00E94F90D60930B0270931D
:101900000C0280930D0290930E027DCC5A94DDCF91
:1019100010922802109227028DE091E09093260207
:101920008093250287E0809329028FEF80932A021B
:1019300086E080932B0285E080932C0284E08093E4
:101940002D0283E080932E0282E080932F0210927A
:10195000300210923102109232021092330261E092
:1019600087E00E94610180912A028F3F19F061E0B7
:101970000E94610161E080912B020E94610110923E
:101980003A0281E00C949D04A1E21A2EAA1BBB1B13
:10199000FD010DC0AA1FBB1FEE1FFF1FA217B3073B
:1019A000E407F50720F0A21BB30BE40BF50B661F51
:1019B000771F881F991F1A9469F760957095809515
:1019C00090959B01AC01BD01CF0108955058BB27F4
:1019D000AA270E94FE0C0C94710E0E94630E38F030
:1019E0000E946A0E20F039F49F3F19F426F40C94FB
:1019F000600E0EF4E095E7FB0C945A0EE92F0E945E
:101A0000820E58F3BA17620773078407950720F010
:101A100079F4A6F50C94A40E0EF4E0950B2EBA2FD3
:101A2000A02D0B01B90190010C01CA01A0011124E4
:101A3000FF27591B99F0593F50F4503E68F11A1690
:101A4000F040A22F232F342F4427585FF3CF469521
:101A500037952795A795F0405395C9F77EF41F1643
:101A6000BA0B620B730B840BBAF09150A1F0FF0F0D
:101A7000BB1F661F771F881FC2F70EC0BA0F621FF9
:101A8000731F841F48F4879577956795B795F795E9
:101A90009E3F08F0B0CF9395880F08F09927EE0F7E
:101AA0009795879508950E94360E08F481E0089571
:101AB0000E946C0D0C94710E0E946A0E58F00E94E8
:101AC000630E40F029F45F3F29F00C945A0E511137
:101AD0000C94A50E0C94600E0E94820E68F399235C
:101AE000B1F3552391F3951B550BBB27AA2762171A
:101AF0007307840738F09F5F5F4F220F331F441F27
:101B0000AA1FA9F335D00E2E3AF0E0E832D091505A
:101B10005040E695001CCAF72BD0FE2F29D0660F47
:101B2000771F881FBB1F261737074807AB07B0E88A
:101B300009F0BB0B802DBF01FF2793585F4F3AF090
:101B40009E3F510578F00C945A0E0C94A50E5F3F01
:101B5000E4F3983ED4F3869577956795B795F79516
:101B60009F5FC9F7880F911D9695879597F90895FE
:101B7000E1E0660F771F881FBB1F6217730784079A
:101B8000BA0720F0621B730B840BBA0BEE1F88F7A9
:101B9000E09508950E948A0E88F09F5798F0B92F1B
:101BA0009927B751B0F0E1F0660F771F881F991F92
:101BB0001AF0BA95C9F714C0B13091F00E94A40E82
:101BC000B1E008950C94A40E672F782F8827B85F92
:101BD00039F0B93FCCF3869577956795B395D9F7EA
:101BE0003EF490958095709561957F4F8F4F9F4FF4
:101BF0000895E89409C097FB3EF490958095709500
:101C000061957F4F8F4F9F4F9923A9F0F92F96E948
:101C1000BB279395F695879577956795B795F111BD
:101C2000F8CFFAF4BB0F11F460FF1BC06F5F7F4F5A
:101C30008F4F9F4F16C0882311F096E911C077236C
:101C400021F09EE8872F762F05C0662371F096E875
:101C5000862F70E060E02AF09A95660F771F881F44
:101C6000DAF7880F9695879597F90895990F0008E8
:101C7000550FAA0BE0E8FEEF16161706E807F9075E
:101C8000C0F012161306E407F50798F0621B730BF9
:101C9000840B950B39F40A2661F0232B242B252B7A
:101CA00021F408950A2609F4A140A6958FEF811D1D
:101CB000811D089597F99F6780E870E060E00895BE
:101CC0009FEF80EC089500240A9416161706180654
:101CD0000906089500240A94121613061406050630
:101CE0000895092E0394000C11F4882352F0BB0FC1
:101CF00040F4BF2B11F460FF04C06F5F7F4F8F4F24
:101D00009F4F089557FD9058440F551F59F05F3F5E
:101D100071F04795880F97FB991F61F09F3F79F00D
:101D200087950895121613061406551FF2CF46958F
:101D3000F1DF08C0161617061806991FF1CF869511
:101D40007105610508940895E894BB2766277727F5
:101D5000CB0197F908950E94360E08F48FEF08958D
:101D60000E94C30E0C94710E0E94630E38F00E9404
:101D70006A0E20F0952311F00C945A0E0C94600E0C
:101D800011240C94A50E0E94820E70F3959FC1F34E
:101D9000950F50E0551F629FF001729FBB27F00D19
:101DA000B11D639FAA27F00DB11DAA1F649F66276E
:101DB000B00DA11D661F829F2227B00DA11D621FBD
:101DC000739FB00DA11D621F839FA00D611D221F77
:101DD000749F3327A00D611D231F849F600D211D5B
:101DE000822F762F6A2F11249F5750409AF0F1F0DE
:101DF00088234AF0EE0FFF1FBB1F661F771F881F47
:101E000091505040A9F79E3F510580F00C945A0E16
:101E10000C94A50E5F3FE4F3983ED4F38695779536
:101E20006795B795F795E7959F5FC1F7FE2B880FEC
:101E3000911D9695879597F908950E94360E880B07
:101E4000990B089597FB072E16F4009407D077FDA1
:101E500009D00E94360F07FC05D03EF4909581957D
:101E60009F4F0895709561957F4F0895AA1BBB1BE6
:101E700051E107C0AA1FBB1FA617B70710F0A61B8A
:101E8000B70B881F991F5A95A9F780959095BC01AB
:101E9000CD010895EE0FFF1F0590F491E02D0994F8
:101EA000F894FFCFFF000040001400540000000031
:101EB000003C058D000A0309036E616E00696E66C1
:101EC000006F766600250057657420536F696C00BB
:101ED0004D6F69737420536F696C0044727920539D
:101EE0006F696C0054656D70657261747572653AE6
:101EF00020002A4320004461726B2057696E647988
:101F0000204D5200436C6F7564792F466F67677977
:101F1000204D520041626E6F726D616C6C79204889
:101F20006F74004272696774682057696E64792023
:101F30004D520042726967687420436C6F75647912
:101F4000204D5200486F74205765617468657200B7
:101F500053756E6E792057696E6479204D52004436
:101F600072792053756E6E7900636D00416C6D6FF0
:101F7000737420456D707479004661697200537501
:0E1F80006666696369656E740046756C6C0078
:107E0000112484B714BE81FFF0D085E080938100F7
:107E100082E08093C00088E18093C10086E0809377
:107E2000C20080E18093C4008EE0C9D0259A86E02C
:107E300020E33CEF91E0309385002093840096BBD3
:107E4000B09BFECF1D9AA8958150A9F7CC24DD24C4
:107E500088248394B5E0AB2EA1E19A2EF3E0BF2EE7
:107E6000A2D0813461F49FD0082FAFD0023811F036
:107E7000013811F484E001C083E08DD089C08234E0
:107E800011F484E103C0853419F485E0A6D080C0E4
:107E9000853579F488D0E82EFF2485D0082F10E0AE
:107EA000102F00270E291F29000F111F8ED06801E7
:107EB0006FC0863521F484E090D080E0DECF843638
:107EC00009F040C070D06FD0082F6DD080E0C81688
:107ED00080E7D80618F4F601B7BEE895C0E0D1E017
:107EE00062D089930C17E1F7F0E0CF16F0E7DF06D8
:107EF00018F0F601B7BEE89568D007B600FCFDCFD4
:107F0000A601A0E0B1E02C9130E011968C91119780
:107F100090E0982F8827822B932B1296FA010C0160
:107F200087BEE89511244E5F5F4FF1E0A038BF0790
:107F300051F7F601A7BEE89507B600FCFDCF97BE46
:107F4000E89526C08437B1F42ED02DD0F82E2BD052
:107F50003CD0F601EF2C8F010F5F1F4F84911BD097
:107F6000EA94F801C1F70894C11CD11CFA94CF0C13
:107F7000D11C0EC0853739F428D08EE10CD085E9AC
:107F80000AD08FE07ACF813511F488E018D01DD067
:107F900080E101D065CF982F8091C00085FFFCCF94
:107FA0009093C60008958091C00087FFFCCF809118
:107FB000C00084FD01C0A8958091C6000895E0E648
:107FC000F0E098E1908380830895EDDF803219F02E
:107FD00088E0F5DFFFCF84E1DECF1F93182FE3DFCA
:107FE0001150E9F7F2DF1F91089580E0E8DFEE27F6
:047FF000FF270994CA
:027FFE00040479
:00000001FF
